:0C0000000C94A1000C9494010C949B0241
:10000C000C9400000C9400000C9471010C940000F2
:10001C000C9400000C9400000C9400000C94000054
:10002C000C9400000C9400000C9400000C94000044
:10003C000C9400000C9400000C9400000C94000034
:10004C000C9400000C9400000C9400000C94000024
:10005C000C9400000C9400000C940000630063638B
:10006C006363630064000003040308030C031003C0
:10007C00140318030100000001000000010000003F
:10008C000100010000000100000001005361740038
:10009C0053756E004D6F6E005475650057656400A6
:1000AC00546875004672690020414D203A200020AA
:1000BC00504D203A2000060009006800010046035C
:1000CC006E00010047037000040000039800040058
:1000DC0004039C0004000803A00004000C03A4000B
:1000EC0004001003A80004001403AC00040018035F
:1000FC00B0000E0049037200170057038000070080
:10010C001C03B40007002303BB0004002A03B70040
:10011C0004002E03B70004003203B70004003603BA
:10012C00B70004003A03B70004003E03B700040014
:10013C004203B7000000F894EE27EFBBF1E0F5BFE7
:10014C00E5BF8DE0A2E0BB27ED938A95E9F780E04F
:10015C0098E0A0E0B1E0ED930197E9F7E2ECF0E074
:10016C0085919591009761F0A591B59105901590A9
:10017C00BF01F00105900D920197E1F7FB01F0CF63
:10018C00E0E0EEBBEFEFEDBFE8E0EEBFC0E0D3E0A8
:10019C000C9487030E941508662777270E94480D48
:1001AC00A0E0B0E080E89FE30E94C908A0E0B0E0C6
:1001BC008AEF92E40E94CA0DA0E0B0E080EC90ECD3
:1001CC000E947B0DA1E7B3E00E94D4080E94340882
:1001DC00662777270E94480DA0E0B0E08AE794E4F8
:1001EC000E94C908A2EFBFEE83E39EE30E94CA0DF2
:1001FC00A6E6B6E68BE392EC0E947B0DA0E0B0E0A5
:10020C008AE794E40E94CA0DA3E7B3E00E94D408E5
:10021C000E94DC080E94EC080E94F0080E94EC0886
:10022C00A0916F03A230F8F40E9400090E94040907
:10023C000E944C090E945B090E946009A09148032E
:10024C00A13019F4ACE1B3E009C0A0914803A2308D
:10025C0019F4A3E2B3E002C0AAE2B3E00E940008E2
:10026C000E94740935C00E9400090E94A4090E94D2
:10027C00A9090E94A4090E94B109AEE20E94BE091C
:10028C000E94C1090E94BE090E94CD090E94BE09AC
:10029C000E94D909A3E40E94DF070E945B090E9417
:1002AC00E1090E94A9090E94E1090E94B1090E947A
:1002BC00E1090E94C1090E94DF070E94E1090E9426
:1002CC00CD090E94DF070E94E1090E94D909A5E22D
:1002DC000E94DF0708950E94E6090E94F4094F9BD3
:1002EC00FECFA0916F03A23021F4EFEFE0936F03E8
:1002FC0004C0E0916F03E03009F47BD2A1E00E94CE
:10030C00C607E0916F03EF5FE0936F03A2E3B0E0E9
:10031C000E945C0EA1E00E94C607E5C10E94E6099E
:10032C0022970E94F809E0916F03E03019F061D236
:10033C000E94FE09A1E00E94C6070E94DC080E94F0
:10034C0000090E9404090E944C090E94F0080E94B6
:10035C005B090E946009AEE2B3E00E94040A0E94AD
:10036C00DF070E94070A4A99B2C04D9906C00E9445
:10037C00F4090E94100A4D9BFECF4E9906C00E94B4
:10038C00F4090E94190A4E9BFECF4C9919C00E9489
:10039C00F4090024021603068CF42F5F3F4F5030F3
:1003AC0019F4E22FE15802C0E22FE154E0937003FC
:1003BC002131E0E03E0714F40E94220A4C9BFECF50
:1003CC0033991BC00E94F4092230E0E03E079CF0F8
:1003DC00215030402130E0E03E0714F421E030E0C1
:1003EC00503019F4E22FE15802C0E22FE154E093AF
:1003FC0070030E94220A339BFECF503089F50E9475
:10040C00260A319915C001E010E00E94330A0E94BF
:10041C0004090E944C09503019F4E22FE15802C033
:10042C00E22FE154E09370030E94220A319BFECF2D
:10043C00329915C000E010E00E94330A0E940409B2
:10044C000E944C09503019F4E22FE15802C0E22FFF
:10045C00E154E09370030E94220A329BFECF36C017
:10046C00319919C001E010E00E944A0A0E9460090B
:10047C00A2E3B3E00E94040A0E94DF07503019F493
:10048C00E22FE15802C0E22FE154E09370030E9486
:10049C00220A319BFECF329919C000E010E00E9475
:1004AC004A0A0E946009A6E3B3E00E94040A0E9473
:1004BC00DF07503019F4E22FE15802C0E22FE1546B
:1004CC00E09370030E94220A329BFECF4CCF4E82E7
:1004DC000E945C0AE0E00E94700A3E820E945C0A64
:1004EC00E1E00E94700A6E820E945C0AE2E00E94C7
:1004FC00700A5E820E945C0AE3E00E94700A8E829F
:10050C000E945C0AE4E00E94700A7E820E945C0AEF
:10051C00E5E00E94700AAE820E945C0AE6E00E944E
:10052C00700A0E94740A2896DEC00E94E6090E9496
:10053C00F809E0916F03E03019F05BD10E94FE09DD
:10054C00A1E00E94C6070E94DC080E9400090E94DC
:10055C0004090E944C090E94F0080E945B090E9449
:10056C006009AAE3B3E00E94040A0E94DF07942CFE
:10057C00C32CB62CE52CD82C70924603A0924703C2
:10058C000E94070A4B99ACC04D9906C00E94F40911
:10059C000E94100A4D9BFECF4E9906C00E94F40992
:1005AC000E94190A4E9BFECF4C9919C00E94F40967
:1005BC000024021603068CF42F5F3F4F503019F4C1
:1005CC00E22FE15802C0E22FE154E0937003213195
:1005DC00E0E03E0714F40E94220A4C9BFECF3399B4
:1005EC001BC00E94F4092230E0E03E079CF0215031
:1005FC0030402130E0E03E0714F421E030E0503090
:10060C0019F4E22FE15802C0E22FE154E093700399
:10061C000E94220A339BFECF503089F50E94260A95
:10062C00319915C001E010E00E947C0A0E94930AE7
:10063C000E944C09503019F4E22FE15802C0E22F0D
:10064C00E154E09370030E94220A319BFECF329951
:10065C0015C000E010E00E947C0A0E94930A0E94E0
:10066C004C09503019F4E22FE15802C0E22FE1544A
:10067C00E09370030E94220A329BFECF30C0319966
:10068C0016C001E010E00E94DF0A0E94F10AAEE3FE
:10069C00B3E00E94050B19F4E22FE15802C0E22FDF
:1006AC00E154E09370030E94220A319BFECF3299F1
:1006BC0016C000E010E00E94DF0A0E94F10AA2E4DA
:1006CC00B3E00E94050B19F4E22FE15802C0E22FAF
:1006DC00E154E09370030E94220A329BFECF52CF6A
:1006EC000E94740A2696E991EFBFF991E991B991AC
:1006FC00A9919991899179916991F99019900990A1
:10070C001895E0E8E0936100E0E0E0936100EFE32E
:10071C00E4B9E0E0E5B9E1E0E7B9EEE0E8B9E0E042
:10072C00EAB9EBB9E4BDE5BDE6BDE7BDE8BDE093D4
:10073C008000E0938100E0938500E0938400E093D7
:10074C008700E0938600E0938900E0938800E093B3
:10075C008B00E0938A00E093B600E093B000E09346
:10076C00B100E093B200E093B300E093B400E093E7
:10077C006E00E0936F00E0937000EAE0E093690094
:10078C00E3E0EDBBECBBE4E0E0936800E0E8E09371
:10079C006D00E4E0EBBBE0E0E093C100E0E8E0BF1B
:1007AC00E0E0E0937B00E0937F00E0937A00ECBD07
:1007BC00E093BC0078940E94A3070E945308EADCE3
:1007CC00A8EEB3E00E945C0EFACFFFCF1A930A9307
:1007DC001A2F0A810E943A0B31F4A02F0E94400B71
:1007EC00A12F0E94400B0E945E081981088123965C
:1007FC0008950E946C0C0E943A0B09F040C0A2E0D4
:10080C000E94400B0E94420BA1E00E9493080E2F05
:10081C000E945E08A02FB0E0E6E00E94860CE1701A
:10082C00A9F40E94450B00701C3010F0006201C04E
:10083C000060A12FBB27ECE0F0E00E94C20C1E2F41
:10084C000E94510BE22FE05CE30F14C0E02FE29505
:10085C00EF70E695E1705E2F0F710E94450B5130E1
:10086C0021F4145F083109F410E00E94510B007060
:10087C00E32FE20F0E2BE2E0EA93A02FA7DF0E94FA
:10088C00730C0C94FE070E946C0CAD010E943A0B89
:10089C00D1F5A0E00E94400B0E94420B0E94620B1B
:1008AC00A1E00E9493083E2F0E945E081F770F77ED
:1008BC00E12F0E94690BE12FEF70EA0F0E94700B81
:1008CC000E94750BE295EF70E695E695E1702E2F80
:1008DC00213081F4E32FE295EF70E695E1702E2F35
:1008EC00213019F4DA01E2E002C0DA01E1E0EC9324
:1008FC003F7104C0DA01E0E0EC933F73E32F0E94F8
:10090C00690B0E947D0B2AC00E946C0CAD010E94E9
:10091C003A0B21F5A3E00E94400B0E94420B0E946F
:10092C00620BA0E00E9493083E2F0E94840B0E9451
:10093C005E081F700F733F71E12FEF700E94700BF8
:10094C000E94750B0E94690B0E947D0BE22F0E9486
:10095C00690BE22FEF70EA0FDA01EC930E94730C33
:10096C002C9608950E946C0C8D012E813F81588528
:10097C00E1E0F0E0E017F10709F0ADC00E94880B50
:10098C00E1F40E948D0B3A96DF01E52FF0E0EA17B7
:10099C00FB076CF4AD85BE85EC91E65F0E94920B73
:1009AC0028F00E949E0B10F00E94AA0B05C0AD858A
:1009BC00BE85EC91E65FEC938DC00E94B00BE1F428
:1009CC000E948D0B3196DF01E52FF0E0EA17FB0753
:1009DC006CF4AD85BE85EC91EF5F0E94920B28F014
:1009EC000E949E0B10F00E94AA0B05C0AD85BE851F
:1009FC00EC91EF5FEC936EC0E4E0F0E0E217F307EC
:100A0C00A1F40E94B50B339754F0AB85BC85EC91E7
:100A1C00E2500E94BA0B10F00E94AA0B05C0AB85E5
:100A2C00BC85EC91E65FEC9355C0E5E0F0E0E21795
:100A3C00F307A1F40E94B50B3C9754F0AB85BC8531
:100A4C00EC91EB500E94BA0B10F00E94AA0B05C05F
:100A5C00AB85BC85EC91EF5FEC933CC00E94C50B61
:100A6C0091F40E94CA0B3A96E436A0E0FA072CF0F7
:100A7C00A985BA85EC91EA5504C0A985BA85EC9193
:100A8C00E65FEC9327C0E8E0F0E0E217F30791F49F
:100A9C000E94CA0B3196E336A0E0FA072CF0A98528
:100AAC00BA85EC91E35604C0A985BA85EC91EF5F49
:100ABC00EC9310C02A30E0E03E0724F02D30E0E04B
:100ACC003E070CF007C0AF85B889EC91EF5FEC9353
:100ADC000E94CF0BC3C00E94880BE1F40E948D0BC7
:100AEC003A970E94DE0C84F0AD85BE85EC91E50F43
:100AFC00EA500E94DB0B39F40E94E50B11F40E94C2
:100B0C00EE0B0E94F30B05C0AD85BE85EC91EA504F
:100B1C00EC93A4C00E94B00BE1F40E948D0B3197B2
:100B2C000E94DE0C84F0AD85BE85EC91E50FE150A2
:100B3C000E94DB0B39F40E94E50B11F40E94EE0BC2
:100B4C000E94F30B05C0AD85BE85EC91E150EC9392
:100B5C0085C0E4E0F0E0E217F307E9F40E94B50B7E
:100B6C003A970E94DE0C8CF0AB85BC85EC91EE5F65
:100B7C00EC93A985BA85EC91E03011F40E94EE0B50
:100B8C00A985BA85EC91E15004C0AB85BC85EC918C
:100B9C00EA50EC9363C0E5E0F0E0E217F307E9F408
:100BAC000E94B50B31970E94DE0C8CF0AB85BC8596
:100BBC00EC91E55FEC930E94F30BA985BA85EC915F
:100BCC00E03011F40E94EE0BA985BA8502C0AB850A
:100BDC00BC85EC91E150EC9341C00E94C50B89F4AB
:100BEC000E94CA0B3A970E94DE0C2CF0A985BA859C
:100BFC00EC91E65A04C0A985BA85EC91EA50EC93C5
:100C0C002DC0E8E0F0E0E217F30789F40E94CA0B6C
:100C1C0031970E94DE0C2CF0A985BA85EC91ED5928
:100C2C0004C0A985BA85EC91E150EC9317C02A3029
:100C3C00E0E03E0724F02D30E0E03E070CF00EC063
:100C4C00AF85B889EC91E150EC93AC91A03021F4D4
:100C5C00AF85B889E7E0EC930E94CF0B0E94730C30
:100C6C00619608950E946C0C8D012E813F81488500
:100C7C005985E1E0F0E0E017F10709F093C00E941C
:100C8C00880B91F4DA01EC91F0E03E9744F00E946D
:100C9C00F90BE8E1F0E00E94C20CDA0103C0DA01C2
:100CAC00EC91E65FEC937DC00E94B00B91F4DA01FD
:100CBC00EC91F0E0779744F00E94FE0BE8E1F0E055
:100CCC000E94C20CDA0103C0DA01EC91EF5FEC93E5
:100CDC0068C0E6E0F0E0E217F307A9F40E94030C09
:100CEC00F2975CF0AA85BB850E94F90B0E94080C58
:100CFC0019F4DA01E0E0EC9305C0AA85BB85EC9110
:100D0C00E65FEC934EC00E94C50B91F40E94030C5D
:100D1C00FB975CF0AA85BB850E94FE0B0E94080C19
:100D2C0019F4DA01E0E0EC9302C00E94160C39C011
:100D3C00EBE0F0E0E217F307C1F40E941C0CF29711
:100D4C0074F0AC85BD850E94F90B0E94210CAA851C
:100D5C00BB85AC91AC3311F40E94290C05C0AC8559
:100D6C00BD85EC91E65FEC931CC0ECE0F0E0E21783
:100D7C00F307B9F40E941C0CFB9774F0AC85BD858D
:100D8C000E94FE0B0E94210CAA85BB85AC91AC3352
:100D9C0011F40E94290C05C0AC85BD85EC91EF5F68
:100DAC00EC9399C00E94880B79F4DA01EC91F0E095
:100DBC003A970E94DE0C1CF4EC91EA5003C0DA0165
:100DCC00EC91E25FEC9387C00E94B00B71F4DA01F6
:100DDC00EC91F0E031970E94DE0C1CF4EC91E150A8
:100DEC0002C00E942E0CEC9376C0E6E0F0E0E21715
:100DFC00F307B1F40E94030C3A97FF235AF4AA8527
:100E0C00BB85EC91EE5C0E94320C19F40E943C0CF8
:100E1C00EC9305C0AA85BB85EC91EA50EC935BC0C2
:100E2C000E94C50B79F40E94030C3197FF233AF40E
:100E3C000E94400C19F40E943C0CEC9302C00E94DE
:100E4C00450C49C0EBE0F0E0E217F30701F50E9416
:100E5C001C0C3A97FF23AAF4AC85BD85EC91EE5C93
:100E6C00EC930E94450CAA85BB85AC91AF3F41F435
:100E7C000E94290C0E94400C19F40E943C0CEC932B
:100E8C0005C0AC85BD85EC91EA50EC9324C0ECE038
:100E9C00F0E0E217F307F9F40E941C0C3197FF23E2
:100EAC00AAF4AC85BD85EC91E55CEC930E94450CF5
:100EBC00AA85BB85AC91AF3F41F40E94290C0E94DE
:100ECC00400C19F40E943C0CEC9305C0AC85BD851C
:100EDC00EC91E150EC930E94730C2E9608951A93AA
:100EEC001A2F17FD02C0409801C0409A16FD02C08F
:100EFC002D9801C02D9A15FD02C02C9801C02C9A7A
:100F0C0014FD02C02B9801C02B9A5CC01A931A2FA7
:100F1C0013FD02C0409801C0409A12FD02C02D98EA
:100F2C0001C02D9A11FD02C02C9801C02C9A10FD05
:100F3C0002C02B9801C02B9A45C028982A98299852
:100F4C000E94F4090E944B0CA5E0B0E00E945C0EDC
:100F5C000E944B0C80E991E00197F1F70E944B0C39
:100F6C000E94EC08A2E00E94510C0E94EC08A8E23E
:100F7C0007D0ACE005D0A1E003D0A6E001D00895E5
:100F8C001A931A2F299828980E94560CE12FF0E0FA
:100F9C00E130A0E0FA0721F0E230A0E0FA0729F4F2
:100FAC00A2E0B0E00E945C0E03C085EC8A95F1F7DC
:100FBC0009C01A931A2F2998289A0E94560C8BED67
:100FCC008A95F1F7199108950E946E0C0A2F3C81B5
:100FDC002D81213011F4E0E801C0E0EC1E2FE32F4D
:100FEC00E1501E0FA12FCCDFA02FE3DF0E94750C68
:100FFC00269608950E946E0C9D0110E0D901EE27F3
:10100C00A10FBE1FEC91E03041F0D901EE27A10FEA
:10101C00BE1FAC91CEDF1F5FF1CF0C94B0080E94C5
:10102C005D0CE030C1F4A5EF25D3E030A1F48BE6E4
:10103C008A95F1F73DD0ADE1B0E00E945C0E32D064
:10104C00A1E818D3E03011F033D0F9CF0E94650C31
:10105C003327022B132B2CD0F8017CC00E945D0C83
:10106C00E030C1F4A3EF06D3E030A1F48BE68A950F
:10107C00F1F71ED0A5E5B0E00E945C0E13D0A1E8FC
:10108C00F9D2E03011F014D0F9CF0E94650C33275F
:10109C00022B132B0DD0F8015DC0E7B1E063E7B96B
:1010AC00459A0CC03C9A459A449A90D044982FC0CB
:1010BC003C9A459844988AD0459A88D0449A089589
:1010CC001A930A930A2F10E03C9A459810E01830B6
:1010DC0098F4E02FE078F0E00E949B0C0E94990CB1
:1010EC00E03011F4449801C0449A000F6FD0459A37
:1010FC006DD045981F5FEBCF43C03C9A449802C01B
:10110C003C9A449AA1E0B0E00E945C0E459AA1E0A2
:10111C00B0E00E945C0E45980895DAD33A2F10E0A7
:10112C0000E03C9A449A3C98459810E0183060F4E2
:10113C00349A4CD0459A4AD0000FE0E03499E1E063
:10114C000E2B45981F5FF2CF303011F4D6DF01C063
:10115C00D7DFE02FC4D3249608951A930A9310E096
:10116C0000E03C98449A32D0459A30D0349B06C06B
:10117C000F5F0B3F10F011E001C0F8CF4598E12F45
:10118C000991199108950E94CA0DDF01CB01E0E08D
:10119C00F0E060E877E40E94180E08950E940F0DAD
:1011AC00ED93FC93A1E0B0E00C945C0EE5E0F0E074
:1011BC00FA93EA93E8E0F0E0FA93EA93E7E0F0E0E0
:1011CC00FA93EA93AAE0B0E00C948A04A1E0B0E0B0
:1011DC000C945C0EE4E0F0E0FA93EA93E3E0F0E0C8
:1011EC00FA93EA93E6E0F0E0FA93EA93A8E4B3E02A
:1011FC000C944904E1E0EA93EA930895A82DB0E039
:10120C00EAE0F0E00E94BA0CE05DAE2F0E94EA0723
:10121C00A82DBB27EAE0F0E00E94C20CE05DAE2FE7
:10122C000E94DF07AFE20E94DF07A72DB0E0EAE0E3
:10123C00F0E00E94BA0CE05DAE2F0E94DF07A72DF4
:10124C00BB27EAE0F0E00E94C20CE05DAE2F0E94EA
:10125C00DF07AFE20E94DF07AA2DB0E0EAE0F0E082
:10126C000E94BA0CE05DAE2F0E94DF07AA2DBB27AF
:10127C00EAE0F0E00E94C20CE05DAE2F0E94DF07B6
:10128C00A0E20E94DF07A52DBB270895E7E0F0E060
:10129C000E94C20CA9E4B3E0EE0FFF1FAE0FBF1FFC
:1012AC00ED91FD91DF010C940008E2E0EA93E1E09E
:1012BC00EA930895A62DB0E0EAE0F0E00E94BA0CA3
:1012CC00E05DAE2F0E94EA07A62DBB27EAE0F0E016
:1012DC000E94C20CE05DAE2F0C94DF07A32DB0E092
:1012EC00EAE0F0E00E94BA0CE05DAE2F0E94DF074E
:1012FC00A32DBB27EAE0F0E00E94C20CE05DAE2F0C
:10130C000E94DF07A0E20E94DF07AAE30E94DF072A
:10131C00A0E20E94DF07A42DB0E0EAE0F0E00E941A
:10132C00BA0CE05DAE2F0E94DF07A42DBB27EAE0CC
:10133C00F0E00E94C20CE05DAE2F0895A091730303
:10134C00B09174030895E0E1F7E20E94A70CE05D10
:10135C00AE2F0C94EA07E8EEF3E00E94A70CDF0135
:10136C00EAE0F0E00E94BF0CE05DAE2F0C94DF07CA
:10137C000E94DF07E3CFE4E6F0E00E94A70CDF0158
:10138C00EAE0F0E00E94BF0CE05DAE2F0895EAE0C9
:10139C00F0E00E94A70CDF01EAE0F0E00E94BF0C35
:1013AC00E05DAE2F0895EAE0F0E00E94BF0CE05D36
:1013BC00AE2F0C94DF07A0917103B09172030895C6
:1013CC000A921A92FA926A937A938A939A93AA93AC
:1013DC00BA93EA93FA93EFB7EA930895A4E1B0E0D5
:1013EC000C945C0E73D221E030E050E04EE1F6CF6D
:1013FC00E0E0E0934803E0936F0308950E94000837
:10140C006DCFA0E80E94C607AFE00E94C60721E09E
:10141C0030E0089550E0E22FE158E0937003A09182
:10142C0070030C94C60751E0E22FE154E093700373
:10143C00A09170030C94C607A09170030C94C6077E
:10144C00E72DF0E03197A7E5B3E0EE0FFF1FAE0FED
:10145C00BF1FEC91E25E4E2F0895E5E0F0E0FA93A9
:10146C00EA93E8E0F0E0FA93EA93E7E0F0E0FA932D
:10147C00EA93EAE0F0E0FA93EA934A933A932A93D8
:10148C00D8010E94B804B6CEE4E0F0E0FA93EA93F7
:10149C00E3E0F0E0FA93EA93E6E0F0E0FA93EA9303
:1014AC003A932A93D8010E943806FFCEAE81B0E061
:1014BC00EAE0F0E00E94BA0CEF83E295E07FEF8364
:1014CC00AE81BB27EAE0F0E00E94C20CAF81EA2BB0
:1014DC00EF830895EA93A8850C94EC03ACE00E948A
:1014EC00C607A1E00E94C607F8D10895EEE0F0E02F
:1014FC00FA93EA93EDE0F0E0FA93EA93E6E4F3E092
:10150C00FA93EA93E7E4F3E0FA93EA934A933A9373
:10151C002A93D8010E94B8046DCEAD2DB0E0EAE05C
:10152C00F0E00E94BA0CE05DAE2F0E94EA07AD2DF0
:10153C00BB27EAE0F0E00E94C20CE05DAE2F0E94F7
:10154C00DF07AFE20E94DF07A0914603B0E0EAE0BC
:10155C00F0E00E94BA0CE05DAE2F0E94DF07A09174
:10156C004603BB27EAE0F0E00E94C20CE05DAE2F20
:10157C000E94DF07AFE20E94DF07A0914703B0E0B3
:10158C00EAE0F0E00E94BA0CE05DAE2F0E94DF07AB
:10159C00A0914703BB27EAE0F0E00E94C20CE05D9B
:1015AC00AE2F0E94DF07A0E20E94DF07AE2DBB2703
:1015BC000895E9E0F0E0FA93EA93ECE0F0E0FA93B6
:1015CC00EA93EBE0F0E0FA93EA933A932A93D8018A
:1015DC000E9438066ACEAB2DB0E0EAE0F0E00E9443
:1015EC00BA0CE05DAE2F0E94EA07AB2DBB27EAE0F8
:1015FC00F0E00E94C20CE05DAE2F0C94DF070E945D
:10160C000008AC2DB0E0EAE0F0E00E94BA0CE05D1E
:10161C00AE2F0E94DF07AC2DBB27EAE0F0E00E9462
:10162C00C20CE05DAE2F0E94DF07A0E20E94DF0734
:10163C00AAE30E94DF07A0E20E94DF07A92DB0E019
:10164C00EAE0F0E00E94BA0CE05DAE2F0E94DF07EA
:10165C00A92DBB27EAE0F0E00E94C20CE05DAE2FA2
:10166C000E94DF07503008951DDDA0ED29DD75DDEA
:10167C00E030089525DD71CD15DDA1EDFBCFE02F18
:10168C00E295EF70AAE0EA02F001AE2FE02FEF70C6
:10169C00EA0F1E2F0895A12FB0E0EAE0F0E00E94BF
:1016AC00BA0C3E2F3295307FA12FBB27EAE0F0E039
:1016BC000E94C20C2E2F0895A0E02FDD1E2FA0E05B
:1016CC002CDD0E2F0895E295EF70AAE0EA02F001EE
:1016DC00AE2F0895AA85BB85EC93E02FF4CFE02FB5
:1016EC00EF70EA0FA885B985EC93E32F0895E32FEB
:1016FC00EF70EA0FAE81BF81EC930895A1E00DDD90
:10170C002E2F0895E1E0F0E0E217F3070895AD8580
:10171C00BE85EC91F0E00895E51BAD85BE85EC939C
:10172C00AB85BC85EC91EF5FEC93AC91AD3008953B
:10173C00AB85BC85E1E0EC93A985BA85EC91EF5FB4
:10174C00EC93AC91A4360895A985BA85EC91E45636
:10175C00EC930895E2E0F0E0E217F3070895AB850F
:10176C00BC85EC91F0E00895AB85BC85EC93A98524
:10177C00BA85EC91EF5FEC93AC91A4360895E7E059
:10178C00F0E0E217F3070895A985BA85EC91F0E033
:10179C000895AF85B889BD01AC91BB27E7E0F0E0B7
:1017AC000E94C20CDB01EC930895AD85BE85EC93D1
:1017BC00AB85BC85EC91E150EC93E0300895AB85A2
:1017CC00BC85ECE0EC93A985BA85EC91E0300895EA
:1017DC00A985BA85E4E6EC930895A985BA85EC91C0
:1017EC00E150EC930895EC91F0E03A96DF01089506
:1017FC00EC91F0E03196DF010895AA85BB85EC9160
:10180C00F0E00895ECE3F0E00E94C20CAA85BB85E1
:10181C00EC93DA01EC91EF5FEC93AC91A831089565
:10182C00AA85BB85EC91EF5FEC930895AC85BD85E3
:10183C00EC91F0E00895ECE3F0E00E94C20CAC8572
:10184C00BD85EC93EDCFAA85BB85E0E0EC930895C4
:10185C00DA01EC91E95E0895AA85BB85EC93DA0177
:10186C00EC91E150EC93AC91AF3F0895DA01E0E0DC
:10187C00EC93EECFAA85BB85EC91E55CEDCFAA8508
:10188C00BB85EC91E150EC930895A3E00E948C078A
:10189C002A9A2A9808950E948C072A9A2A980895C1
:1018AC00A12F0E9475072A9A2A98A12FF4CF10D045
:1018BC0000E010E020E030E0F5DBA0E8DBCEA0E0BB
:1018CC002CDC0E2F1127102F002718CF5A934A9378
:1018DC003A932A931A930A9308955D814C813B8124
:1018EC002A81198108810895F195E195F0400895B8
:1018FC00F09560957095E195FF4F6F4F7F4F089570
:10190C00EE230E2EE8E01E2EFD0161F0011430F0E6
:10191C00EF2FF0E0E7FDFFEF011821F0F595E795CB
:10192C000A94E1F70895F595E795F595E795F59502
:10193C00E795F595E79508956F2F660F660B762F53
:10194C0008950024112490E1AA0FBB1F001C111C48
:10195C000E1A1F0A18F40E0E1F1E01C0A1609A95D4
:10196C0099F7FD01D001089515D0EBDF0EF4BCDF23
:10197C000895E7DFFD010895E894B7FF04C0B19521
:10198C00A195B0406894F7FDAFDFDBDFFD010EF4ED
:10199C00ABDF0895E894F7FF02C0A6DF6894B7FFA9
:1019AC0006C0B195A195B04000F8039400FA0895D3
:1019BC0000240E160F060895552342F4503811F4E6
:1019CC00E0FF04C03196691F791F6BF050E8572770
:1019DC0011F45F93C8C05F3F31F0660F000C579550
:1019EC006795752F08955F9300200AF0C7C0C0C09B
:1019FC0050E8192E1522880F991F9527550F87959A
:101A0C0050E8072E0522660F771F7527550F67952F
:101A1C000895689401C0E8945F93F2DF703818F071
:101A2C007F3F08F4A0C056E1571BAAF451955830DB
:101A3C000EF4593030F0EFEFFFEF6FEF7FE777F9EF
:101A4C001AC077275523B9F0EE0FFF1F661F771FBB
:101A5C005A95D1F710C07727583028F0EF2FF62F72
:101A6C00672F5850F9CF552331F076956795F79538
:101A7C00E7955A95D1F700200AF43ADF5F91089563
:101A8C00689401C0E894309760407040B1F0002435
:101A9C0026F0772312F400942BDF172E7EE1112011
:101AAC0032F07A95EE0FFF1F661F111CF9CFEF2F46
:101ABC00F62F612D5F938ADF5F9108954F93AF01ED
:101ACC00FD01DA01AB01BC01CA01402D012C142E21
:101ADC004F910895EA0FFB1F681F0895E095F0954C
:101AEC006095EF5FFF4F6F4F08955F9381DF9038E4
:101AFC0039F1703821F1572F591B2BF112F4DEDF1D
:101B0C00FACF583118F0AA27BB278827583028F06D
:101B1C00AB2FB82F88275850F9CF552329F086952D
:101B2C00B795A7955A95D9F7502D512572F0D2DF5C
:101B3C0038F46795F795E795739513F41FC0BEDFDE
:101B4C0045DF5F910895D8F7FBCFEA1BFB0B680BC1
:101B5C0051F010F40094C2DF662392F3EE0FFF1FD6
:101B6C00661F7A95CBF7EE27FF27BF015F9108958B
:101B7C00EFEFFFEF6FE77FEF5F910895EFEFFFEF70
:101B8C006FE77FE75F9108955F9332DF703859F309
:101B9C00903849F301240894791F23F424F300208E
:101BAC003AF3ECCF0F921F932F933F934F93112740
:101BBC0022279927689FA0018F9F302D410D591F17
:101BCC006B9F300D411D591F8E9F27D0BF9F25D075
:101BDC006A9F23D0BE9F1DD0AF9F1BD0AE9F110D0F
:101BEC00291F391F491F591FE32FF42F652F522F1F
:101BFC004F913F912F911F910F9066232AF0550F13
:101C0C00EE1FFF1F661F02C073954BF2D5DE5F916E
:101C1C000895100D211D391F02C0200D311D491FC3
:101C2C00591F08955F93E4DE703821F411200AF4F3
:101C3C009FCFA4CF903809F496CF01240894970B2A
:101C4C001BF4D4F30020F3CF792F1F932F933F93E2
:101C5C004F931124112722273327A90190E2AE17A5
:101C6C00BF078607410730F0AE1BBF0B860B410B3D
:101C7C00089401C08894551F221F331F111CAA1FE2
:101C8C00BB1F881F441F9A9551F7F901612D4F9185
:101C9C003F912F911F91662332F0550FEE1FFF1FBE
:101CAC00661F7A954BF288DE5F910895109639F095
:101CBC00A89580EA9FE00197F1F71197C9F708956D
:00000001FF
