:0C0000000C94AA000C94A4010C94AA0219
:10000C000C9400000C9400000C9483010C940000E0
:10001C000C9400000C9400000C9400000C94000054
:10002C000C9400000C9400000C9400000C94000044
:10003C000C9400000C9400000C9400000C94000034
:10004C000C9400000C9400000C9400000C94000024
:10005C000C9400000C9400000C9400006363636328
:10006C006300630064000003040308030C03100323
:10007C00140318030100000001000000010000003F
:10008C000100010000000100000001005361740038
:10009C0053756E004D6F6E005475650057656400A6
:1000AC00546875004672690020414D203A200020AA
:1000BC00504D203A2000414C41524D0004000B00A1
:1000CC00680001004C036C0001004D036E00010040
:1000DC004E037000040000039800040004039C000D
:1000EC0004000803A00004000C03A4000400100387
:1000FC00A80004001403AC0004001803B0000E00A8
:10010C005003720017005E03800007001C03B4004C
:10011C0007002303BB0004002A03B70004002E03CE
:10012C00B70004003203B70004003603B700040024
:10013C003A03B70004003E03B70004004203B700C3
:10014C0006004603C2000000F894EE27EFBBF1E076
:10015C00F5BFE5BF8DE0A2E0BB27ED938A95E9F7EB
:10016C0080E098E0A0E0B1E0ED930197E9F7E8ECCE
:10017C00F0E085919591009761F0A591B59105906E
:10018C001590BF01F00105900D920197E1F7FB016D
:10019C00F0CFE0E0EEBBEFEFEDBFE8E0EEBFC0E08C
:1001AC00D3E00C949603F8940E9475086627772781
:1001BC000E94B00DA0E0B0E080E89FE30E94290906
:1001CC00A0E0B0E08AEF92E40E94320EA0E0B0E032
:1001DC0080EC90EC0E94E30DA8E7B3E00E94340998
:1001EC000E949408662777270E94B00DA0E0B0E02B
:1001FC008AE794E40E942909A2EFBFEE83E39EE311
:10020C000E94320EA6E6B6E68BE392EC0E94E30D5A
:10021C00A0E0B0E08AE794E40E94320EAAE7B3E0D3
:10022C000E9434090E943C090E944C090E9450090A
:10023C000E944C097894341409F45DC0A1E00E942A
:10024C001008A0917603A230F8F40E9460090E9475
:10025C0064090E94AC090E94BB090E94C009A091CC
:10026C004F03A13019F4ACE1B3E009C0A0914F03E6
:10027C00A23019F4A3E2B3E002C0AAE2B3E00E94F8
:10028C004A080E94D40935C00E9460090E94040AE1
:10029C000E94090A0E94040A0E94110AAEE20E94FE
:1002AC001E0A0E94210A0E941E0A0E942D0A0E9408
:1002BC001E0A0E94390AA3E40E9429080E94BB0965
:1002CC000E94410A0E94090A0E94410A0E94110AD6
:1002DC000E94410A0E94210A0E9429080E94410A98
:1002EC000E942D0A0E9429080E94410A0E94390A84
:1002FC00A5E20E942908432C08950E94460A0E94F8
:10030C00540A4F9BFECFA0917603A23021F4EFEF5D
:10031C00E093760304C0E0917603E03009F4B3D2A5
:10032C00A1E00E941008E0917603EF5FE093760362
:10033C000E94580AA1E00E941008E4C10E94460ADB
:10034C0022970E945C0AE0917603E03011F00E9443
:10035C00620AA1E00E9410080E943C090E946009F8
:10036C000E9464090E94AC090E9450090E94BB09BA
:10037C000E94C009AEE2B3E00E946A0A0E942908FA
:10038C000E946D0A4A99B2C04D9906C00E94540A47
:10039C000E94760A4D9BFECF4E9906C00E94540ACD
:1003AC000E947F0A4E9BFECF4C9919C00E94540AA2
:1003BC000024021603068CF42F5F3F4F503019F4C3
:1003CC00E22FE15802C0E22FE154E0937703213190
:1003DC00E0E03E0714F40E94880A4C9BFECF339950
:1003EC001BC00E94540A2230E0E03E079CF02150D2
:1003FC0030402130E0E03E0714F421E030E0503092
:10040C0019F4E22FE15802C0E22FE154E093770394
:10041C000E94880A339BFECF503089F50E948C0ACB
:10042C00319915C001E010E00E94990A0E946409FC
:10043C000E94AC09503019F4E22FE15802C0E22FAF
:10044C00E154E09377030E94880A319BFECF3299E6
:10045C0015C000E010E00E94990A0E9464090E94F5
:10046C00AC09503019F4E22FE15802C0E22FE154EC
:10047C00E09377030E94880A329BFECF36C03199F5
:10048C0019C001E010E00E94B00A0E94C009A2E36A
:10049C00B3E00E946A0A0E942908503019F4E22F36
:1004AC00E15802C0E22FE154E09377030E94880ADE
:1004BC00319BFECF329919C000E010E00E94B00AC7
:1004CC000E94C009A6E3B3E00E946A0A0E942908B0
:1004DC00503019F4E22FE15802C0E22FE154E093BE
:1004EC0077030E94880A329BFECF4CCF3E820E943B
:1004FC00C20AE0E00E94D60A6E820E94C20AE1E0C3
:10050C000E94D60A5E820E94C20AE2E00E94D60ACB
:10051C008E820E94C20AE3E00E94D60A7E820E946A
:10052C00C20AE4E00E94D60AAE820E94C20AE5E04A
:10053C000E94D60A9E820E94C20AE6E00E94D60A57
:10054C000E94DA0A2896DEC00E94460A0E945C0AC3
:10055C00E0917603E03011F00E94620AA1E00E9463
:10056C0010080E943C090E9460090E9464090E94C4
:10057C00AC090E9450090E94BB090E94C009AAE361
:10058C00B3E00E946A0A0E942908C32CB62CE52C01
:10059C00D82C70924C03A0924D0390924E030E9463
:1005AC006D0A4B99ACC04D9906C00E94540A0E942A
:1005BC00760A4D9BFECF4E9906C00E94540A0E94AB
:1005CC007F0A4E9BFECF4C9919C00E94540A0024FE
:1005DC00021603068CF42F5F3F4F503019F4E22FB4
:1005EC00E15802C0E22FE154E09377032131E0E0BF
:1005FC003E0714F40E94880A4C9BFECF33991BC013
:10060C000E94540A2230E0E03E079CF0215030401A
:10061C002130E0E03E0714F421E030E0503019F4D2
:10062C00E22FE15802C0E22FE154E09377030E94DD
:10063C00880A339BFECF503089F50E948C0A319981
:10064C0015C001E010E00E94E20A0E94F90A0E9423
:10065C00AC09503019F4E22FE15802C0E22FE154FA
:10066C00E09377030E94880A319BFECF329915C024
:10067C0000E010E00E94E20A0E94F90A0E94AC0914
:10068C00503019F4E22FE15802C0E22FE154E0930C
:10069C0077030E94880A329BFECF30C0319916C076
:1006AC0001E010E00E94470B0E94590BAEE3B3E04F
:1006BC000E946D0B19F4E22FE15802C0E22FE154B5
:1006CC00E09377030E94880A319BFECF329916C0C3
:1006DC0000E010E00E94470B0E94590BA2E4B3E02B
:1006EC000E946D0B19F4E22FE15802C0E22FE15485
:1006FC00E09377030E94880A329BFECF52CF0E9470
:10070C00DA0A2696E991EFBFF991E991B991A9918D
:10071C009991899179916991F9901990099018950D
:10072C00E0E8E0936100E0E0E0936100EFE3E4B91E
:10073C00E0E0E5B9E1E0E7B9EEE0E8B9E1E0EAB91B
:10074C00E0E0EBB9E4BDE5BDE6BDE7BDE8BDE09397
:10075C008000E0938100E0938500E0938400E093B7
:10076C008700E0938600E0938900E0938800E09393
:10077C008B00E0938A00E093B600E093B000E09326
:10078C00B100E093B200E093B300E093B400E093C7
:10079C006E00E0936F00E0937000EAE0E093690074
:1007AC00E3E0EDBBECBBE4E0E0936800E0E8E09351
:1007BC006D00E4E0EBBBE0E0E093C100E0E8E0BFFB
:1007CC00E0E0E0937B00E0937F00E0937A00ECBDE7
:1007DC00E093BC0078940E94ED070E94B308E3DC20
:1007EC00E0914E03E91571F4E0914D03EA1551F4D3
:1007FC00E0914C03E71531F4E51421F46B1410F07F
:10080C003C1408F42BC0A1E00E941008E1E0EA932C
:10081C00E5E0EA93A6E4B3E00E945F08319B0AC0CE
:10082C00329B08C0339B06C04C9B04C04D9B02C03E
:10083C004E9901C007C0589A0E94580A58980E94B5
:10084C00580AECCFE3E6CE2EBE2EEE2EDE2EE09333
:10085C004C03E0934D03E4E6E0934E03C0CFFFCF8F
:10086C001A930A931A2F0A810E94A20B31F4A02F1B
:10087C000E94A80BA12F0E94A80B0E94BE081981F0
:10088C000881239608950E94D40C0E94A20B09F0B3
:10089C0040C0A2E00E94A80B0E94AA0BA1E00E94FB
:1008AC00F3080E2F0E94BE08A02FB0E0E6E00E94D5
:1008BC00EE0CE170A9F40E94AD0B00701C3010F02E
:1008CC00006201C00060A12FBB27ECE0F0E00E94A9
:1008DC002A0D1E2F0E94B90BE22FE05CE30F14C00F
:1008EC00E02FE295EF70E695E1705E2F0F710E949C
:1008FC00AD0B513021F4145F083109F410E00E9463
:10090C00B90B0070E32FE20F0E2BE2E0EA93A02F5D
:10091C00A7DF0E94DB0C0C9448080E94D40CAD019C
:10092C000E94A20BD1F5A0E00E94A80B0E94AA0B7A
:10093C000E94CA0BA1E00E94F3083E2F0E94BE0841
:10094C001F770F77E12F0E94D10BE12FEF70EA0F89
:10095C000E94D80B0E94DD0BE295EF70E695E695B0
:10096C00E1702E2F213081F4E32FE295EF70E695A4
:10097C00E1702E2F213019F4DA01E2E002C0DA0125
:10098C00E1E0EC933F7104C0DA01E0E0EC933F73DB
:10099C00E32F0E94D10B0E94E50B2AC00E94D40CBD
:1009AC00AD010E94A20B21F5A3E00E94A80B0E94AE
:1009BC00AA0B0E94CA0BA0E00E94F3083E2F0E94D3
:1009CC00EC0B0E94BE081F700F733F71E12FEF708C
:1009DC000E94D80B0E94DD0B0E94D10B0E94E50BEC
:1009EC00E22F0E94D10BE22FEF70EA0FDA01EC93A9
:1009FC000E94DB0C2C9608950E94D40C8D012E8144
:100A0C003F815885E1E0F0E0E017F10709F0ADC057
:100A1C000E94F00BE1F40E94F50B3A96DF01E52FF2
:100A2C00F0E0EA17FB076CF4AD85BE85EC91E65F50
:100A3C000E94FA0B28F00E94060C10F00E94120C77
:100A4C0005C0AD85BE85EC91E65FEC938DC00E9430
:100A5C00180CE1F40E94F50B3196DF01E52FF0E064
:100A6C00EA17FB076CF4AD85BE85EC91EF5F0E9435
:100A7C00FA0B28F00E94060C10F00E94120C05C014
:100A8C00AD85BE85EC91EF5FEC936EC0E4E0F0E0D9
:100A9C00E217F307A1F40E941D0C339754F0AB85B9
:100AAC00BC85EC91E2500E94220C10F00E94120CBA
:100ABC0005C0AB85BC85EC91E65FEC9355C0E5E0D9
:100ACC00F0E0E217F307A1F40E941D0C3C9754F0E0
:100ADC00AB85BC85EC91EB500E94220C10F00E946F
:100AEC00120C05C0AB85BC85EC91EF5FEC933CC060
:100AFC000E942D0C91F40E94320C3A96E436A0E040
:100B0C00FA072CF0A985BA85EC91EA5504C0A985A1
:100B1C00BA85EC91E65FEC9327C0E8E0F0E0E217D1
:100B2C00F30791F40E94320C3196E336A0E0FA07F9
:100B3C002CF0A985BA85EC91E35604C0A985BA8539
:100B4C00EC91EF5FEC9310C02A30E0E03E0724F00C
:100B5C002D30E0E03E070CF007C0AF85B889EC9172
:100B6C00EF5FEC930E94370CC3C00E94F00BE1F4D2
:100B7C000E94F50B3A970E94460D84F0AD85BE8518
:100B8C00EC91E50FEA500E94430C39F40E944D0C95
:100B9C0011F40E94560C0E945B0C05C0AD85BE85FD
:100BAC00EC91EA50EC93A4C00E94180CE1F40E9462
:100BBC00F50B31970E94460D84F0AD85BE85EC9106
:100BCC00E50FE1500E94430C39F40E944D0C11F4D6
:100BDC000E94560C0E945B0C05C0AD85BE85EC9145
:100BEC00E150EC9385C0E4E0F0E0E217F307E9F4A0
:100BFC000E941D0C3A970E94460D8CF0AB85BC856B
:100C0C00EC91EE5FEC93A985BA85EC91E03011F490
:100C1C000E94560CA985BA85EC91E15004C0AB85B5
:100C2C00BC85EC91EA50EC9363C0E5E0F0E0E21790
:100C3C00F307E9F40E941D0C31970E94460D8CF0CD
:100C4C00AB85BC85EC91E55FEC930E945B0CA985B0
:100C5C00BA85EC91E03011F40E94560CA985BA8546
:100C6C0002C0AB85BC85EC91E150EC9341C00E9475
:100C7C002D0C89F40E94320C3A970E94460D2CF0F0
:100C8C00A985BA85EC91E65A04C0A985BA85EC9180
:100C9C00EA50EC932DC0E8E0F0E0E217F30789F49A
:100CAC000E94320C31970E94460D2CF0A985BA8512
:100CBC00EC91ED5904C0A985BA85EC91E150EC9307
:100CCC0017C02A30E0E03E0724F02D30E0E03E076C
:100CDC000CF00EC0AF85B889EC91E150EC93AC915F
:100CEC00A03021F4AF85B889E7E0EC930E94370C73
:100CFC000E94DB0C619608950E94D40C8D012E810C
:100D0C003F8148855985E1E0F0E0E017F10709F0F3
:100D1C0093C00E94F00B91F4DA01EC91F0E03E9755
:100D2C0044F00E94610CE8E1F0E00E942A0DDA0127
:100D3C0003C0DA01EC91E65FEC937DC00E94180CC5
:100D4C0091F4DA01EC91F0E0779744F00E94660C94
:100D5C00E8E1F0E00E942A0DDA0103C0DA01EC911F
:100D6C00EF5FEC9368C0E6E0F0E0E217F307A9F45C
:100D7C000E946B0CF2975CF0AA85BB850E94610CFB
:100D8C000E94700C19F4DA01E0E0EC9305C0AA851E
:100D9C00BB85EC91E65FEC934EC00E942D0C91F458
:100DAC000E946B0CFB975CF0AA85BB850E94660CBD
:100DBC000E94700C19F4DA01E0E0EC9302C00E947E
:100DCC007E0C39C0EBE0F0E0E217F307C1F40E94AF
:100DDC00840CF29774F0AC85BD850E94610C0E9466
:100DEC00890CAA85BB85AC91AC3311F40E94910C93
:100DFC0005C0AC85BD85EC91E65FEC931CC0ECE0C6
:100E0C00F0E0E217F307B9F40E94840CFB9774F03E
:100E1C00AC85BD850E94660C0E94890CAA85BB8599
:100E2C00AC91AC3311F40E94910C05C0AC85BD851E
:100E3C00EC91EF5FEC9399C00E94F00B79F4DA011E
:100E4C00EC91F0E03A970E94460D1CF4EC91EA50BC
:100E5C0003C0DA01EC91E25FEC9387C00E94180C9E
:100E6C0071F4DA01EC91F0E031970E94460D1CF41C
:100E7C00EC91E15002C00E94960CEC9376C0E6E037
:100E8C00F0E0E217F307B1F40E946B0C3A97FF23E2
:100E9C005AF4AA85BB85EC91EE5C0E949A0C19F46D
:100EAC000E94A40CEC9305C0AA85BB85EC91EA507A
:100EBC00EC935BC00E942D0C79F40E946B0C319763
:100ECC00FF233AF40E94A80C19F40E94A40CEC9392
:100EDC0002C00E94AD0C49C0EBE0F0E0E217F30752
:100EEC0001F50E94840C3A97FF23AAF4AC85BD85CA
:100EFC00EC91EE5CEC930E94AD0CAA85BB85AC9199
:100F0C00AF3F41F40E94910C0E94A80C19F40E946E
:100F1C00A40CEC9305C0AC85BD85EC91EA50EC9328
:100F2C0024C0ECE0F0E0E217F307F9F40E94840C23
:100F3C003197FF23AAF4AC85BD85EC91E55CEC936D
:100F4C000E94AD0CAA85BB85AC91AF3F41F40E94C9
:100F5C00910C0E94A80C19F40E94A40CEC9305C0EF
:100F6C00AC85BD85EC91E150EC930E94DB0C2E9688
:100F7C0008951A931A2F17FD02C0409801C0409A89
:100F8C0016FD02C02D9801C02D9A15FD02C02C989B
:100F9C0001C02C9A14FD02C02B9801C02B9A5CC086
:100FAC001A931A2F13FD02C0409801C0409A12FDEB
:100FBC0002C02D9801C02D9A11FD02C02C9801C0C1
:100FCC002C9A10FD02C02B9801C02B9A45C0289872
:100FDC002A9829980E94540A0E94B30CA5E0B0E00C
:100FEC000E94C40E0E94B30C80E991E00197F1F7C6
:100FFC000E94B30C0E944C09A2E00E94B90C0E9402
:10100C004C09A8E207D0ACE005D0A1E003D0A6E0E3
:10101C0001D008951A931A2F299828980E94BE0C73
:10102C00E12FF0E0E130A0E0FA0721F0E230A0E09F
:10103C00FA0729F4A2E0B0E00E94C40E03C085ECCC
:10104C008A95F1F709C01A931A2F2998289A0E94A9
:10105C00BE0C8BED8A95F1F7199108950E94D60C70
:10106C000A2F3C812D81213011F4E0E801C0E0EC25
:10107C001E2FE32FE1501E0FA12FCCDFA02FE3DF9B
:10108C000E94DD0C269608950E94D60C9D0110E05E
:10109C00D901EE27A10FBE1FEC91E03041F0D90130
:1010AC00EE27A10FBE1FAC91CEDF1F5FF1CF0C94CA
:1010BC0010090E94D40C9D010E815F81513011F4F6
:1010CC00E0E801C0E0EC1E2FE02FE1501E0FA12F35
:1010DC00A1DFD901D9DF0E94DB0C289608950E946C
:1010EC00C50CE030C1F4A5EF2DD3E030A1F48BE6B4
:1010FC008A95F1F73DD0ADE1B0E00E94C40E32D03C
:10110C00A1E820D3E03011F033D0F9CF0E94CD0C00
:10111C003327022B132B2CD0F8017CC00E94C50C5A
:10112C00E030C1F4A3EF0ED3E030A1F48BE68A9546
:10113C00F1F71ED0A5E5B0E00E94C40E13D0A1E8D3
:10114C0001D3E03011F014D0F9CF0E94CD0C33272D
:10115C00022B132B0DD0F8015DC0E7B1E063E7B9AA
:10116C00459A0CC03C9A459A449A90D044982FC00A
:10117C003C9A459844988AD0459A88D0449A0895C8
:10118C001A930A930A2F10E03C9A459810E01830F5
:10119C0098F4E02FE078F0E00E94030D0E94010D1E
:1011AC00E03011F4449801C0449A000F6FD0459A76
:1011BC006DD045981F5FEBCF43C03C9A449802C05A
:1011CC003C9A449AA1E0B0E00E94C40E459AA1E07A
:1011DC00B0E00E94C40E45980895E2D33A2F10E077
:1011EC0000E03C9A449A3C98459810E0183060F422
:1011FC00349A4CD0459A4AD0000FE0E03499E1E0A3
:10120C000E2B45981F5FF2CF303011F4D6DF01C0A2
:10121C00D7DFE02FCCD3249608951A930A9310E0CD
:10122C0000E03C98449A32D0459A30D0349B06C0AA
:10123C000F5F0B3F10F011E001C0F8CF4598E12F84
:10124C000991199108950E94320EDF01CB01E0E063
:10125C00F0E060E877E40E94800E08950E94770D1C
:10126C00ED93FC93A1E0B0E00C94C40EE8E0F0E048
:10127C00FA93EA93E7E0F0E0FA93EA93EAE0F0E01D
:10128C00FA93EA93A9E0B0E00C94D404A1E0B0E0A6
:10129C000C94C40EE3E0F0E0FA93EA93E6E0F0E09D
:1012AC00FA93EA93E5E0F0E0FA93EA93AFE4B3E063
:1012BC000C949304E1E0EA93EA930895A72DB0E02F
:1012CC00EAE0F0E00E94220DE05DAE2F0E943408AF
:1012DC00A72DBB27EAE0F0E00E942A0DE05DAE2FBF
:1012EC000E942908AFE20E942908AA2DB0E0EAE08A
:1012FC00F0E00E94220DE05DAE2F0E942908AA2D7D
:10130C00BB27EAE0F0E00E942A0DE05DAE2F0E94C0
:10131C002908AFE20E942908A92DB0E0EAE0F0E02C
:10132C000E94220DE05DAE2F0E942908A92DBB273B
:10133C00EAE0F0E00E942A0DE05DAE2F0E94290841
:10134C00A0E20E942908A82DBB270895E7E0F0E051
:10135C000E942A0DA0E5B3E0EE0FFF1FAE0FBF1FDA
:10136C00ED91FD91DF010C944A08E2E0EA93E1E093
:10137C00EA930895A52DB0E0EAE0F0E00E94220D7A
:10138C00E05DAE2F0E943408A52DBB27EAE0F0E00B
:10139C000E942A0DE05DAE2F0C942908A62DB0E01A
:1013AC00EAE0F0E00E94220DE05DAE2F0E942908D9
:1013BC00A62DBB27EAE0F0E00E942A0DE05DAE2FDF
:1013CC000E942908A0E20E942908AAE30E94290889
:1013DC00A0E20E942908A32DB0E0EAE0F0E00E9410
:1013EC00220DE05DAE2F0E942908A32DBB27EAE059
:1013FC00F0E00E942A0DE05DAE2F0895A0917A03D3
:10140C00B0917B030895E0E1F7E20E940F0DE05DDF
:10141C00AE2F0C943408E8EEF3E00E940F0DDF01C0
:10142C00EAE0F0E00E94270DE05DAE2F0C94290855
:10143C000E942908E3CFE4E6F0E00E940F0DDF01E3
:10144C00EAE0F0E00E94270DE05DAE2F0895EAE09F
:10145C00F0E00E940F0DDF01EAE0F0E00E94270DA2
:10146C00E05DAE2F0895EAE0F0E00E94270DE05D0C
:10147C00AE2F0C942908A0917803B09179030895AC
:10148C000A921A92FA926A937A938A939A93AA93EB
:10149C00BA93EA93FA93EFB7EA930895A4E1B0E014
:1014AC000C94C40EA2E3B0E00C94C40E77D221E0ED
:1014BC0030E050E04EE1F2CF0E944904E0E0E093CE
:1014CC004F03E093760308950E944A0867CFA0E883
:1014DC000E941008AFE00E94100821E030E008954F
:1014EC0050E0E22FE158E0937703A09177030C943E
:1014FC00100851E0E22FE154E0937703A0917703B9
:10150C000C941008A09177030C941008EA2DF0E0CD
:10151C003197AEE5B3E0EE0FFF1FAE0FBF1FEC919E
:10152C00E25E4E2F0895E8E0F0E0FA93EA93E7E0EC
:10153C00F0E0FA93EA93EAE0F0E0FA93EA93E9E058
:10154C00F0E0FA93EA934A933A932A93D8010E94D3
:10155C000205B0CEE3E0F0E0FA93EA93E6E0F0E0C7
:10156C00FA93EA93E5E0F0E0FA93EA933A932A933C
:10157C00D8010E948206F9CEAE81B0E0EAE0F0E03C
:10158C000E94220DEF83E295E07FEF83AE81BB27B3
:10159C00EAE0F0E00E942A0DAF81EA2BEF83089578
:1015AC00EA93A8850C943604ACE00E941008A1E0E4
:1015BC000E941008FAD10895EDE0F0E0FA93EA9356
:1015CC00ECE4F3E0FA93EA93EDE4F3E0FA93EA93B4
:1015DC00EEE4F3E0FA93EA934A933A932A93D80110
:1015EC000E94020567CEA0914C03B0E0EAE0F0E067
:1015FC000E94220DE05DAE2F0E943408A0914C0396
:10160C00BB27EAE0F0E00E942A0DE05DAE2F0E94BD
:10161C002908AFE20E942908A0914D03B0E0EAE04E
:10162C00F0E00E94220DE05DAE2F0E942908A091EF
:10163C004D03BB27EAE0F0E00E942A0DE05DAE2FDF
:10164C000E942908AFE20E942908A0914E03B0E045
:10165C00EAE0F0E00E94220DE05DAE2F0E94290826
:10166C00A0914E03BB27EAE0F0E00E942A0DE05D5A
:10167C00AE2F0E942908A0E20E942908AD2DBB279D
:10168C000895ECE0F0E0FA93EA93EBE0F0E0FA93E3
:10169C00EA93EEE0F0E0FA93EA933A932A93D801B6
:1016AC000E94820662CEAE2DB0E0EAE0F0E00E942D
:1016BC00220DE05DAE2F0E943408AE2DBB27EAE070
:1016CC00F0E00E942A0DE05DAE2F0C9429080E94D8
:1016DC004A08AB2DB0E0EAE0F0E00E94220DE05D9C
:1016EC00AE2F0E942908AB2DBB27EAE0F0E00E9448
:1016FC002A0DE05DAE2F0E942908A0E20E94290865
:10170C00AAE30E942908A0E20E942908AC2DB0E0AF
:10171C00EAE0F0E00E94220DE05DAE2F0E94290865
:10172C00AC2DBB27EAE0F0E00E942A0DE05DAE2F65
:10173C000E9429085030089515DDA0ED21DD6DDDE6
:10174C00E03008951DDD69CD0DDDA1EDFBCFE02F5F
:10175C00E295EF70AAE0EA02F001AE2FE02FEF70F5
:10176C00EA0F1E2F0895A12FB0E0EAE0F0E00E94EE
:10177C00220D3E2F3295307FA12FBB27EAE0F0E0FF
:10178C000E942A0D2E2F0895A0E027DD1E2FA0E029
:10179C0024DD0E2F0895E295EF70AAE0EA02F00125
:1017AC00AE2F0895AA85BB85EC93E02FF4CFE02FE4
:1017BC00EF70EA0FA885B985EC93E32F0895E32F1A
:1017CC00EF70EA0FAE81BF81EC930895A1E005DDC7
:1017DC002E2F0895E1E0F0E0E217F3070895AD85B0
:1017EC00BE85EC91F0E00895E51BAD85BE85EC93CC
:1017FC00AB85BC85EC91EF5FEC93AC91AD3008956B
:10180C00AB85BC85E1E0EC93A985BA85EC91EF5FE3
:10181C00EC93AC91A4360895A985BA85EC91E45665
:10182C00EC930895E2E0F0E0E217F3070895AB853E
:10183C00BC85EC91F0E00895AB85BC85EC93A98553
:10184C00BA85EC91EF5FEC93AC91A4360895E7E088
:10185C00F0E0E217F3070895A985BA85EC91F0E062
:10186C000895AF85B889BD01AC91BB27E7E0F0E0E6
:10187C000E942A0DDB01EC930895AD85BE85EC9397
:10188C00AB85BC85EC91E150EC93E0300895AB85D1
:10189C00BC85ECE0EC93A985BA85EC91E030089519
:1018AC00A985BA85E4E6EC930895A985BA85EC91EF
:1018BC00E150EC930895EC91F0E03A96DF01089535
:1018CC00EC91F0E03196DF010895AA85BB85EC918F
:1018DC00F0E00895ECE3F0E00E942A0DAA85BB85A8
:1018EC00EC93DA01EC91EF5FEC93AC91A831089595
:1018FC00AA85BB85EC91EF5FEC930895AC85BD8513
:10190C00EC91F0E00895ECE3F0E00E942A0DAC8538
:10191C00BD85EC93EDCFAA85BB85E0E0EC930895F3
:10192C00DA01EC91E95E0895AA85BB85EC93DA01A6
:10193C00EC91E150EC93AC91AF3F0895DA01E0E00B
:10194C00EC93EECFAA85BB85EC91E55CEDCFAA8537
:10195C00BB85EC91E150EC930895A3E00E94D6076F
:10196C002A9A2A9808950E94D6072A9A2A980895A6
:10197C00A12F0E94BF072A9A2A98A12FF4CF10D02A
:10198C0000E010E020E030E0EDDBA0E8DBCEA0E0F2
:10199C0024DC0E2F1127102F002718CF5A934A93AF
:1019AC003A932A931A930A9308955D814C813B8153
:1019BC002A81198108810895F195E195F0400895E7
:1019CC00F09560957095E195FF4F6F4F7F4F08959F
:1019DC00EE230E2EE8E01E2EFD0161F0011430F016
:1019EC00EF2FF0E0E7FDFFEF011821F0F595E795FB
:1019FC000A94E1F70895F595E795F595E795F59532
:101A0C00E795F595E79508956F2F660F660B762F82
:101A1C0008950024112490E1AA0FBB1F001C111C77
:101A2C000E1A1F0A18F40E0E1F1E01C0A1609A9503
:101A3C0099F7FD01D001089515D0EBDF0EF4BCDF52
:101A4C000895E7DFFD010895E894B7FF04C0B19550
:101A5C00A195B0406894F7FDAFDFDBDFFD010EF41C
:101A6C00ABDF0895E894F7FF02C0A6DF6894B7FFD8
:101A7C0006C0B195A195B04000F8039400FA089502
:101A8C0000240E160F060895552342F4503811F415
:101A9C00E0FF04C03196691F791F6BF050E857279F
:101AAC0011F45F93C8C05F3F31F0660F000C57957F
:101ABC006795752F08955F9300200AF0C7C0C0C0CA
:101ACC0050E8192E1522880F991F9527550F8795C9
:101ADC0050E8072E0522660F771F7527550F67955F
:101AEC000895689401C0E8945F93F2DF703818F0A1
:101AFC007F3F08F4A0C056E1571BAAF4519558300B
:101B0C000EF4593030F0EFEFFFEF6FEF7FE777F91E
:101B1C001AC077275523B9F0EE0FFF1F661F771FEA
:101B2C005A95D1F710C07727583028F0EF2FF62FA1
:101B3C00672F5850F9CF552331F076956795F79567
:101B4C00E7955A95D1F700200AF43ADF5F91089592
:101B5C00689401C0E894309760407040B1F0002464
:101B6C0026F0772312F400942BDF172E7EE1112040
:101B7C0032F07A95EE0FFF1F661F111CF9CFEF2F75
:101B8C00F62F612D5F938ADF5F9108954F93AF011C
:101B9C00FD01DA01AB01BC01CA01402D012C142E50
:101BAC004F910895EA0FFB1F681F0895E095F0957B
:101BBC006095EF5FFF4F6F4F08955F9381DF903813
:101BCC0039F1703821F1572F591B2BF112F4DEDF4C
:101BDC00FACF583118F0AA27BB278827583028F09D
:101BEC00AB2FB82F88275850F9CF552329F086955D
:101BFC00B795A7955A95D9F7502D512572F0D2DF8C
:101C0C0038F46795F795E795739513F41FC0BEDF0D
:101C1C0045DF5F910895D8F7FBCFEA1BFB0B680BF0
:101C2C0051F010F40094C2DF662392F3EE0FFF1F05
:101C3C00661F7A95CBF7EE27FF27BF015F910895BA
:101C4C00EFEFFFEF6FE77FEF5F910895EFEFFFEF9F
:101C5C006FE77FE75F9108955F9332DF703859F338
:101C6C00903849F301240894791F23F424F30020BD
:101C7C003AF3ECCF0F921F932F933F934F9311276F
:101C8C0022279927689FA0018F9F302D410D591F46
:101C9C006B9F300D411D591F8E9F27D0BF9F25D0A4
:101CAC006A9F23D0BE9F1DD0AF9F1BD0AE9F110D3E
:101CBC00291F391F491F591FE32FF42F652F522F4E
:101CCC004F913F912F911F910F9066232AF0550F42
:101CDC00EE1FFF1F661F02C073954BF2D5DE5F919E
:101CEC000895100D211D391F02C0200D311D491FF3
:101CFC00591F08955F93E4DE703821F411200AF423
:101D0C009FCFA4CF903809F496CF01240894970B59
:101D1C001BF4D4F30020F3CF792F1F932F933F9311
:101D2C004F931124112722273327A90190E2AE17D4
:101D3C00BF078607410730F0AE1BBF0B860B410B6C
:101D4C00089401C08894551F221F331F111CAA1F11
:101D5C00BB1F881F441F9A9551F7F901612D4F91B4
:101D6C003F912F911F91662332F0550FEE1FFF1FED
:101D7C00661F7A954BF288DE5F910895109639F0C4
:101D8C00A89580EA9FE00197F1F71197C9F708959C
:00000001FF
